:020000040800F2
:10000000680600200D02000815020008170200080B
:10001000190200081B0200081D0200080000000071
:100020000000000000000000000000001F020008A7
:100030002102000800000000230200082502000839
:1000400027020008270200082702000827020008EC
:1000500027020008270200082702000827020008DC
:1000600027020008270200082702000827020008CC
:1000700027020008270200082702000827020008BC
:1000800027020008270200082702000827020008AC
:10009000270200082702000827020008270200089C
:1000A000270200082702000827020008270200088C
:1000B00027020008270200080000000027020008AD
:1000C00027020008000000000000000027020008CE
:1000D000000000002702000827020008270200088D
:1000E00027020008270200080000000000000000AE
:1000F0000000000000000000000000000000000000
:1001000000000000000000000000000000000000EF
:10011000000000000000000027020008270200087D
:1001200000000000000000000000000000000000CF
:1001300000000000000000000000000000000000BF
:10014000270200082702000800000000000000004D
:10015000000000000000000000000000000000009F
:10016000000000000000000000000000000000008F
:10017000000000000000000000000000000000007F
:10018000000000002702000800F002F800F02EF83E
:100190000AA090E8000C82448344AAF10107DA45E2
:1001A00001D100F023F8AFF2090EBAE80F0013F006
:1001B000010F18BFFB1A43F0010318472403000086
:1001C000340300000023002400250026103A28BF35
:1001D00078C1FBD8520728BF30C148BF0B607047B9
:1001E0001FB500F070F91FBD10B510BD00F031F85B
:1001F0001146FFF7F5FF00F0FBF800F04FF803B4ED
:10020000FFF7F2FF03BC00F057F8000009488047F1
:1002100009480047FEE7FEE7FEE7FEE7FEE7FEE7E8
:10022000FEE7FEE7FEE7FEE704480549054A064B00
:1002300070470000C902000889010008680000201A
:10024000680600206802002068020020704770479E
:100250007047754600F02CF8AE46050069465346D7
:1002600020F00700854618B020B5FFF7DDFFBDE898
:1002700020404FF000064FF000074FF000084FF00D
:10028000000BAC46ACE8C009ACE8C009ACE8C0095A
:10029000ACE8C00921F007018D46704710B504464F
:1002A000AFF300802046BDE81040FFF7A8BF000074
:1002B000004870470000002001491820ABBEFEE74F
:1002C00026000200704700004EF68850CEF2000073
:1002D00001684CF20C0341F47001016041F200012D
:1002E000C4F202010A68CFF67F0342F001020A60FD
:1002F0004A681A404A600A684FF6FF73CFF6F66301
:100300001A400A600A684FF6CC4322F480220A6041
:100310004A68CFF6007322F4FE024A60CA6A22F0ED
:100320000F02CA620A6B1A400A6300228A604FF009
:10033000006140F8801C704781B041F20001C4F2B6
:100340000201086840F4803008600020009000BF7F
:100350000A68920307D4009AB2F5805F37DC009AEE
:1003600001320092F4E74A6842F4E8124A600A68EF
:1003700042F080720A6000BF00900868800106D4D5
:100380000098B0F5805F26DC00980130F4E742F277
:100390000000C4F20200026842F0020202604868F3
:1003A00020F460504860486840F4806048604868C5
:1003B00020F0F0004860486840F00200486000BF4C
:1003C00048680007FCD500206FF001020AE0012018
:1003D0006FF4803206E008686FF0807220F480309D
:1003E000086002200B681A400A6001B070470000E4
:1003F00040F21444C4F6000400F018F8FFF79CFF24
:1004000040F26001C2F20001086000BF0868626843
:1004100000284FF0007008BF4FF400701043606078
:10042000206880F400402060F0E7000041F2040002
:10043000C4F20200016941F4C021016140F20041AF
:10044000C4F600010A6842F480220A60CA6842F4D5
:100450008022CA600A6822F440320A60CA6842F404
:100460008032CA600A6842F080420A60CA6842F07C
:100470008042CA604FF09042136843F40033136027
:100480004FF60442CFF6FF728B5823F480738B50E3
:100490004FF60C42CFF6FF728B5843F480338B50EB
:1004A0004FF60842CFF6FF728B5843F440338B501F
:1004B0004FF62442CFF6FF7200238B50016841F0C3
:1004C000806101607047F1EE100A4FF6FF71C0F2D3
:1004D000C03120EA010040F04070E1EE100A7047A0
:1004E000F00400080000002068060000C4010008B5
:040000050800018965
:00000001FF
